{
  "address": "0xF930D1E37098128326F8731a476347f0840337cA",
  "abi": [
    {
      "inputs": [
        {
          "internalType": "address",
          "name": "accessControlRegistry_",
          "type": "address"
        },
        {
          "internalType": "string",
          "name": "adminRoleDescription_",
          "type": "string"
        },
        {
          "internalType": "address",
          "name": "manager_",
          "type": "address"
        },
        {
          "internalType": "address",
          "name": "api3ServerV1_",
          "type": "address"
        }
      ],
      "stateMutability": "nonpayable",
      "type": "constructor"
    },
    {
      "anonymous": false,
      "inputs": [
        {
          "indexed": true,
          "internalType": "uint256",
          "name": "dappId",
          "type": "uint256"
        },
        {
          "indexed": true,
          "internalType": "address",
          "name": "updater",
          "type": "address"
        },
        {
          "indexed": false,
          "internalType": "uint256",
          "name": "bidAmount",
          "type": "uint256"
        },
        {
          "indexed": false,
          "internalType": "uint256",
          "name": "signedDataTimestampCutoff",
          "type": "uint256"
        },
        {
          "indexed": false,
          "internalType": "address",
          "name": "auctioneer",
          "type": "address"
        }
      ],
      "name": "PaidOevBid",
      "type": "event"
    },
    {
      "anonymous": false,
      "inputs": [
        {
          "indexed": true,
          "internalType": "bytes32",
          "name": "beaconSetId",
          "type": "bytes32"
        },
        {
          "indexed": false,
          "internalType": "int224",
          "name": "value",
          "type": "int224"
        },
        {
          "indexed": false,
          "internalType": "uint32",
          "name": "timestamp",
          "type": "uint32"
        }
      ],
      "name": "UpdatedBeaconSetWithBeacons",
      "type": "event"
    },
    {
      "anonymous": false,
      "inputs": [
        {
          "indexed": true,
          "internalType": "bytes32",
          "name": "beaconId",
          "type": "bytes32"
        },
        {
          "indexed": false,
          "internalType": "int224",
          "name": "value",
          "type": "int224"
        },
        {
          "indexed": false,
          "internalType": "uint32",
          "name": "timestamp",
          "type": "uint32"
        }
      ],
      "name": "UpdatedBeaconWithSignedData",
      "type": "event"
    },
    {
      "anonymous": false,
      "inputs": [
        {
          "indexed": true,
          "internalType": "uint256",
          "name": "dappId",
          "type": "uint256"
        },
        {
          "indexed": true,
          "internalType": "address",
          "name": "updater",
          "type": "address"
        },
        {
          "indexed": false,
          "internalType": "bytes32",
          "name": "dataFeedId",
          "type": "bytes32"
        },
        {
          "indexed": false,
          "internalType": "int224",
          "name": "updatedValue",
          "type": "int224"
        },
        {
          "indexed": false,
          "internalType": "uint32",
          "name": "updatedTimestamp",
          "type": "uint32"
        }
      ],
      "name": "UpdatedDappOevDataFeed",
      "type": "event"
    },
    {
      "anonymous": false,
      "inputs": [
        {
          "indexed": false,
          "internalType": "address",
          "name": "recipient",
          "type": "address"
        },
        {
          "indexed": false,
          "internalType": "uint256",
          "name": "amount",
          "type": "uint256"
        },
        {
          "indexed": false,
          "internalType": "address",
          "name": "sender",
          "type": "address"
        }
      ],
      "name": "Withdrew",
      "type": "event"
    },
    {
      "inputs": [],
      "name": "AUCTIONEER_ROLE_DESCRIPTION",
      "outputs": [
        {
          "internalType": "string",
          "name": "",
          "type": "string"
        }
      ],
      "stateMutability": "view",
      "type": "function"
    },
    {
      "inputs": [],
      "name": "WITHDRAWER_ROLE_DESCRIPTION",
      "outputs": [
        {
          "internalType": "string",
          "name": "",
          "type": "string"
        }
      ],
      "stateMutability": "view",
      "type": "function"
    },
    {
      "inputs": [],
      "name": "accessControlRegistry",
      "outputs": [
        {
          "internalType": "address",
          "name": "",
          "type": "address"
        }
      ],
      "stateMutability": "view",
      "type": "function"
    },
    {
      "inputs": [],
      "name": "adminRole",
      "outputs": [
        {
          "internalType": "bytes32",
          "name": "",
          "type": "bytes32"
        }
      ],
      "stateMutability": "view",
      "type": "function"
    },
    {
      "inputs": [],
      "name": "adminRoleDescription",
      "outputs": [
        {
          "internalType": "string",
          "name": "",
          "type": "string"
        }
      ],
      "stateMutability": "view",
      "type": "function"
    },
    {
      "inputs": [],
      "name": "api3ServerV1",
      "outputs": [
        {
          "internalType": "address",
          "name": "",
          "type": "address"
        }
      ],
      "stateMutability": "view",
      "type": "function"
    },
    {
      "inputs": [],
      "name": "auctioneerRole",
      "outputs": [
        {
          "internalType": "bytes32",
          "name": "",
          "type": "bytes32"
        }
      ],
      "stateMutability": "view",
      "type": "function"
    },
    {
      "inputs": [
        {
          "internalType": "address",
          "name": "account",
          "type": "address"
        }
      ],
      "name": "containsBytecode",
      "outputs": [
        {
          "internalType": "bool",
          "name": "",
          "type": "bool"
        }
      ],
      "stateMutability": "view",
      "type": "function"
    },
    {
      "inputs": [
        {
          "internalType": "uint256",
          "name": "",
          "type": "uint256"
        }
      ],
      "name": "dappIdToLastPaidBid",
      "outputs": [
        {
          "internalType": "address",
          "name": "updater",
          "type": "address"
        },
        {
          "internalType": "uint32",
          "name": "signedDataTimestampCutoff",
          "type": "uint32"
        }
      ],
      "stateMutability": "view",
      "type": "function"
    },
    {
      "inputs": [
        {
          "internalType": "address",
          "name": "account",
          "type": "address"
        }
      ],
      "name": "getBalance",
      "outputs": [
        {
          "internalType": "uint256",
          "name": "",
          "type": "uint256"
        }
      ],
      "stateMutability": "view",
      "type": "function"
    },
    {
      "inputs": [],
      "name": "getBlockBasefee",
      "outputs": [
        {
          "internalType": "uint256",
          "name": "",
          "type": "uint256"
        }
      ],
      "stateMutability": "view",
      "type": "function"
    },
    {
      "inputs": [],
      "name": "getBlockNumber",
      "outputs": [
        {
          "internalType": "uint256",
          "name": "",
          "type": "uint256"
        }
      ],
      "stateMutability": "view",
      "type": "function"
    },
    {
      "inputs": [],
      "name": "getBlockTimestamp",
      "outputs": [
        {
          "internalType": "uint256",
          "name": "",
          "type": "uint256"
        }
      ],
      "stateMutability": "view",
      "type": "function"
    },
    {
      "inputs": [],
      "name": "getChainId",
      "outputs": [
        {
          "internalType": "uint256",
          "name": "",
          "type": "uint256"
        }
      ],
      "stateMutability": "view",
      "type": "function"
    },
    {
      "inputs": [],
      "name": "manager",
      "outputs": [
        {
          "internalType": "address",
          "name": "",
          "type": "address"
        }
      ],
      "stateMutability": "view",
      "type": "function"
    },
    {
      "inputs": [
        {
          "internalType": "bytes[]",
          "name": "data",
          "type": "bytes[]"
        }
      ],
      "name": "multicall",
      "outputs": [
        {
          "internalType": "bytes[]",
          "name": "returndata",
          "type": "bytes[]"
        }
      ],
      "stateMutability": "nonpayable",
      "type": "function"
    },
    {
      "inputs": [
        {
          "internalType": "uint256",
          "name": "dappId",
          "type": "uint256"
        },
        {
          "internalType": "bytes32",
          "name": "dataFeedId",
          "type": "bytes32"
        }
      ],
      "name": "oevDataFeed",
      "outputs": [
        {
          "internalType": "int224",
          "name": "value",
          "type": "int224"
        },
        {
          "internalType": "uint32",
          "name": "timestamp",
          "type": "uint32"
        }
      ],
      "stateMutability": "view",
      "type": "function"
    },
    {
      "inputs": [
        {
          "internalType": "uint256",
          "name": "dappId",
          "type": "uint256"
        },
        {
          "internalType": "uint32",
          "name": "signedDataTimestampCutoff",
          "type": "uint32"
        },
        {
          "internalType": "bytes",
          "name": "signature",
          "type": "bytes"
        }
      ],
      "name": "payOevBid",
      "outputs": [],
      "stateMutability": "payable",
      "type": "function"
    },
    {
      "inputs": [
        {
          "internalType": "uint256",
          "name": "dappId",
          "type": "uint256"
        },
        {
          "internalType": "bytes[]",
          "name": "signedData",
          "type": "bytes[]"
        }
      ],
      "name": "simulateDappOevDataFeedUpdate",
      "outputs": [
        {
          "internalType": "bytes32",
          "name": "baseDataFeedId",
          "type": "bytes32"
        },
        {
          "internalType": "int224",
          "name": "updatedValue",
          "type": "int224"
        },
        {
          "internalType": "uint32",
          "name": "updatedTimestamp",
          "type": "uint32"
        }
      ],
      "stateMutability": "nonpayable",
      "type": "function"
    },
    {
      "inputs": [
        {
          "internalType": "address",
          "name": "target",
          "type": "address"
        },
        {
          "internalType": "bytes",
          "name": "data",
          "type": "bytes"
        }
      ],
      "name": "simulateExternalCall",
      "outputs": [
        {
          "internalType": "bytes",
          "name": "",
          "type": "bytes"
        }
      ],
      "stateMutability": "nonpayable",
      "type": "function"
    },
    {
      "inputs": [
        {
          "internalType": "bytes[]",
          "name": "data",
          "type": "bytes[]"
        }
      ],
      "name": "tryMulticall",
      "outputs": [
        {
          "internalType": "bool[]",
          "name": "successes",
          "type": "bool[]"
        },
        {
          "internalType": "bytes[]",
          "name": "returndata",
          "type": "bytes[]"
        }
      ],
      "stateMutability": "nonpayable",
      "type": "function"
    },
    {
      "inputs": [
        {
          "internalType": "bytes32[]",
          "name": "beaconIds",
          "type": "bytes32[]"
        }
      ],
      "name": "updateBeaconSetWithBeacons",
      "outputs": [
        {
          "internalType": "bytes32",
          "name": "beaconSetId",
          "type": "bytes32"
        }
      ],
      "stateMutability": "nonpayable",
      "type": "function"
    },
    {
      "inputs": [
        {
          "internalType": "uint256",
          "name": "dappId",
          "type": "uint256"
        },
        {
          "internalType": "bytes[]",
          "name": "signedData",
          "type": "bytes[]"
        }
      ],
      "name": "updateDappOevDataFeed",
      "outputs": [
        {
          "internalType": "bytes32",
          "name": "baseDataFeedId",
          "type": "bytes32"
        },
        {
          "internalType": "int224",
          "name": "updatedValue",
          "type": "int224"
        },
        {
          "internalType": "uint32",
          "name": "updatedTimestamp",
          "type": "uint32"
        }
      ],
      "stateMutability": "nonpayable",
      "type": "function"
    },
    {
      "inputs": [
        {
          "internalType": "address",
          "name": "recipient",
          "type": "address"
        },
        {
          "internalType": "uint256",
          "name": "amount",
          "type": "uint256"
        }
      ],
      "name": "withdraw",
      "outputs": [],
      "stateMutability": "nonpayable",
      "type": "function"
    },
    {
      "inputs": [],
      "name": "withdrawerRole",
      "outputs": [
        {
          "internalType": "bytes32",
          "name": "",
          "type": "bytes32"
        }
      ],
      "stateMutability": "view",
      "type": "function"
    }
  ],
  "transactionHash": "0x74a697577ea3664078e4613cc803a91f7517d69526cc571e4f71106b35422ac6",
  "args": [
    "0xcD7Df573B0F0bb4F2f8dFFF6650cDe8C77431730",
    "Api3ServerV1OevExtension admin",
    "0x81bc85f329cDB28936FbB239f734AE495121F9A6",
    "0x709944a48cAf83535e43471680fDA4905FB3920a"
  ],
  "numDeployments": 1,
  "solcInputHash": "b4ca7b8450ba8a05b37d5646958c962a",
  "bytecode": "0x6101606040523480156200001257600080fd5b5060405162003d0138038062003d018339810160408190526200003591620003c5565b83838382826001600160a01b038216620000895760405162461bcd60e51b815260206004820152601060248201526f4143522061646472657373207a65726f60801b60448201526064015b60405180910390fd5b6000815111620000dc5760405162461bcd60e51b815260206004820152601c60248201527f41646d696e20726f6c65206465736372697074696f6e20656d70747900000000604482015260640162000080565b6001600160a01b0382166080526000620000f7828262000547565b50806040516020016200010b919062000613565b60408051601f19818403018152919052805160209091012060a05250506001600160a01b038116620001805760405162461bcd60e51b815260206004820152601460248201527f4d616e616765722061646472657373207a65726f000000000000000000000000604482015260640162000080565b6001600160a01b03811660c052620001988162000283565b60e0525050506001600160a01b038116620001f65760405162461bcd60e51b815260206004820152601960248201527f4170693353657276657256312061646472657373207a65726f00000000000000604482015260640162000080565b6001600160a01b038116610140526200023a620002138362000283565b60408051808201909152600a8152692bb4ba34323930bbb2b960b11b6020820152620002fd565b61010052620002746200024d8362000283565b60408051808201909152600a81526920bab1ba34b7b732b2b960b11b6020820152620002fd565b61012052506200063192505050565b6000620002f7620002c8836040516001600160601b0319606083901b166020820152600090603401604051602081830303815290604052805190602001209050919050565b60a051604080516020808201949094528082019290925280518083038201815260609092019052805191012090565b92915050565b600062000339838360405160200162000317919062000613565b604051602081830303815290604052805190602001206200034060201b60201c565b9392505050565b604080516020808201949094528082019290925280518083038201815260609092019052805191012090565b80516001600160a01b03811681146200038457600080fd5b919050565b634e487b7160e01b600052604160045260246000fd5b60005b83811015620003bc578181015183820152602001620003a2565b50506000910152565b60008060008060808587031215620003dc57600080fd5b620003e7856200036c565b60208601519094506001600160401b03808211156200040557600080fd5b818701915087601f8301126200041a57600080fd5b8151818111156200042f576200042f62000389565b604051601f8201601f19908116603f011681019083821181831017156200045a576200045a62000389565b816040528281528a60208487010111156200047457600080fd5b620004878360208301602088016200039f565b80975050505050506200049d604086016200036c565b9150620004ad606086016200036c565b905092959194509250565b600181811c90821680620004cd57607f821691505b602082108103620004ee57634e487b7160e01b600052602260045260246000fd5b50919050565b601f8211156200054257600081815260208120601f850160051c810160208610156200051d5750805b601f850160051c820191505b818110156200053e5782815560010162000529565b5050505b505050565b81516001600160401b0381111562000563576200056362000389565b6200057b81620005748454620004b8565b84620004f4565b602080601f831160018114620005b357600084156200059a5750858301515b600019600386901b1c1916600185901b1785556200053e565b600085815260208120601f198616915b82811015620005e457888601518255948401946001909101908401620005c3565b5085821015620006035787850151600019600388901b60f8161c191681555b5050505050600190811b01905550565b60008251620006278184602087016200039f565b9190910192915050565b60805160a05160c05160e05161010051610120516101405161364e620006b3600039600081816102920152611c720152600081816102120152610e990152600081816105670152611188015260006101ab01526000818161031a01526111520152600050506000818161024601528181610ed201526111b4015261364e6000f3fe6080604052600436106101945760003560e01c806359e5c6b9116100e1578063ac9650d81161008a578063f1939bd011610064578063f1939bd014610589578063f3fef3a3146105d2578063f7729409146105f2578063f8b2cb4f1461061257600080fd5b8063ac9650d814610513578063db2da59714610540578063e8597c371461055557600080fd5b806391526c36116100bb57806391526c361461042757806396bb5dbd146104665780639f416522146104cf57600080fd5b806359e5c6b9146103ab5780635ae64712146103cb578063796b89b91461041457600080fd5b806342cbb15c116101435780634c8f1d8d1161011d5780634c8f1d8d1461033c5780634dcc19fe1461035e5780635989eaeb1461037157600080fd5b806342cbb15c146102c7578063437b9116146102da578063481c6a751461030857600080fd5b80631ce9ae07116101745780631ce9ae07146102345780632d6a744e146102805780633408e470146102b457600080fd5b80629f2f3c14610199578062aae33f146101e05780631be8d01f14610200575b600080fd5b3480156101a557600080fd5b506101cd7f000000000000000000000000000000000000000000000000000000000000000081565b6040519081526020015b60405180910390f35b3480156101ec57600080fd5b506101cd6101fb366004612ea4565b61063a565b34801561020c57600080fd5b506101cd7f000000000000000000000000000000000000000000000000000000000000000081565b34801561024057600080fd5b506102687f000000000000000000000000000000000000000000000000000000000000000081565b6040516001600160a01b0390911681526020016101d7565b34801561028c57600080fd5b506102687f000000000000000000000000000000000000000000000000000000000000000081565b3480156102c057600080fd5b50466101cd565b3480156102d357600080fd5b50436101cd565b3480156102e657600080fd5b506102fa6102f5366004612f8f565b610767565b6040516101d792919061306d565b34801561031457600080fd5b506102687f000000000000000000000000000000000000000000000000000000000000000081565b34801561034857600080fd5b506103516108cd565b6040516101d791906130c6565b34801561036a57600080fd5b50486101cd565b34801561037d57600080fd5b5061039b61038c3660046130ee565b6001600160a01b03163b151590565b60405190151581526020016101d7565b3480156103b757600080fd5b506103516103c636600461314d565b61095b565b3480156103d757600080fd5b506103516040518060400160405280600a81526020017f41756374696f6e6565720000000000000000000000000000000000000000000081525081565b34801561042057600080fd5b50426101cd565b34801561043357600080fd5b506104476104423660046131a2565b6109f5565b60408051601b9390930b835263ffffffff9091166020830152016101d7565b34801561047257600080fd5b506104ab6104813660046131c4565b6002602052600090815260409020546001600160a01b03811690600160a01b900463ffffffff1682565b604080516001600160a01b03909316835263ffffffff9091166020830152016101d7565b3480156104db57600080fd5b506104ef6104ea3660046131dd565b610a5d565b60408051938452601b9290920b602084015263ffffffff16908201526060016101d7565b34801561051f57600080fd5b5061053361052e366004612f8f565b610b43565b6040516101d7919061321c565b61055361054e366004613241565b610cc4565b005b34801561056157600080fd5b506101cd7f000000000000000000000000000000000000000000000000000000000000000081565b34801561059557600080fd5b506103516040518060400160405280600a81526020017f576974686472617765720000000000000000000000000000000000000000000081525081565b3480156105de57600080fd5b506105536105ed36600461329d565b6110a1565b3480156105fe57600080fd5b506104ef61060d3660046131dd565b611363565b34801561061e57600080fd5b506101cd61062d3660046130ee565b6001600160a01b03163190565b6000806000610648846113d2565b9150915061065584611574565b600081815260016020526040902080549194509063ffffffff808416600160e01b90920416036106db578054601b84810b91900b036106db5760405162461bcd60e51b815260206004820152601a60248201527f446f6573206e6f742075706461746520426561636f6e2073657400000000000060448201526064015b60405180910390fd5b604080518082018252601b85900b80825263ffffffff858116602080850182815260008b81526001835287902095519051909316600160e01b026001600160e01b0390931692909217909355835191825281019190915285917fb7712be6248d021e8c56ac9613c09491354a4d0f4ad0b7db1a664b35be4b2349910160405180910390a2505050919050565b606080828067ffffffffffffffff81111561078457610784612e5d565b6040519080825280602002602001820160405280156107ad578160200160208202803683370190505b5092508067ffffffffffffffff8111156107c9576107c9612e5d565b6040519080825280602002602001820160405280156107fc57816020015b60608152602001906001900390816107e75790505b50915060005b818110156108c4573086868381811061081d5761081d6132c9565b905060200281019061082f91906132df565b60405161083d929190613326565b600060405180830381855af49150503d8060008114610878576040519150601f19603f3d011682016040523d82523d6000602084013e61087d565b606091505b50858381518110610890576108906132c9565b602002602001018584815181106108a9576108a96132c9565b60209081029190910101919091529015159052600101610802565b50509250929050565b600080546108da90613336565b80601f016020809104026020016040519081016040528092919081815260200182805461090690613336565b80156109535780601f1061092857610100808354040283529160200191610953565b820191906000526020600020905b81548152906001019060200180831161093657829003601f168201915b505050505081565b606033156109ab5760405162461bcd60e51b815260206004820152601760248201527f53656e6465722061646472657373206e6f74207a65726f00000000000000000060448201526064016106d2565b6109eb8484848080601f0160208091040260200160405190810160405280939291908181526020018383808284376000920191909152506115a492505050565b90505b9392505050565b6000806000600160008686604051602001610a1a929190918252602082015260400190565b60408051808303601f1901815291815281516020928301208352908201929092520160002054601b81900b96600160e01b90910463ffffffff1695509350505050565b60008381526002602052604081208054829182916001600160a01b03163314610ac85760405162461bcd60e51b815260206004820152601b60248201527f53656e646572206e6f74206c617374206269642075706461746572000000000060448201526064016106d2565b8054610ae4908890600160a01b900463ffffffff1688886115f1565b60408051848152601b84900b602082015263ffffffff83168183015290519397509195509350339189917ff775a9e1e1719e1dfecea2021e4b9861ac4d02846df440c4cba17e3ce855f913919081900360600190a35093509350939050565b6060818067ffffffffffffffff811115610b5f57610b5f612e5d565b604051908082528060200260200182016040528015610b9257816020015b6060815260200190600190039081610b7d5790505b50915060005b81811015610cbc57600030868684818110610bb557610bb56132c9565b9050602002810190610bc791906132df565b604051610bd5929190613326565b600060405180830381855af49150503d8060008114610c10576040519150601f19603f3d011682016040523d82523d6000602084013e610c15565b606091505b50858481518110610c2857610c286132c9565b6020908102919091010152905080610cb3576000848381518110610c4e57610c4e6132c9565b60200260200101519050600081511115610c6b5780518082602001fd5b60405162461bcd60e51b815260206004820152601b60248201527f4d756c746963616c6c3a204e6f2072657665727420737472696e67000000000060448201526064016106d2565b50600101610b98565b505092915050565b83600003610d145760405162461bcd60e51b815260206004820152600c60248201527f64417070204944207a65726f000000000000000000000000000000000000000060448201526064016106d2565b8263ffffffff16600003610d6a5760405162461bcd60e51b815260206004820152600c60248201527f4375742d6f6666207a65726f000000000000000000000000000000000000000060448201526064016106d2565b610d7642610e10613380565b8363ffffffff1610610dca5760405162461bcd60e51b815260206004820152601d60248201527f4375742d6f666620746f6f2066617220696e207468652066757475726500000060448201526064016106d2565b6000610e8a83838080601f01602080910402602001604051908101604052809392919081815260200183838082843760009201919091525050604080514660208201529081018a905233606090811b6bffffffffffffffffffffffff19169082015234607482015260e089901b7fffffffff00000000000000000000000000000000000000000000000000000000166094820152610e84925060980190505b60405160208183030381529060405280519060200120611f22565b90611f5d565b604051632474521560e21b81527f000000000000000000000000000000000000000000000000000000000000000060048201526001600160a01b0380831660248301529192507f0000000000000000000000000000000000000000000000000000000000000000909116906391d1485490604401602060405180830381865afa158015610f1b573d6000803e3d6000fd5b505050506040513d601f19601f82011682018060405250810190610f3f9190613393565b610f805760405162461bcd60e51b81526020600482015260126024820152710a6d2cedcc2e8eae4ca40dad2e6dac2e8c6d60731b60448201526064016106d2565b60008581526002602052604090205463ffffffff808616600160a01b9092041610610fed5760405162461bcd60e51b815260206004820152601760248201527f4375742d6f6666206e6f74206d6f726520726563656e7400000000000000000060448201526064016106d2565b6040805180820182523380825263ffffffff878116602080850182815260008c815260028352879020955186549151909416600160a01b027fffffffffffffffff0000000000000000000000000000000000000000000000009091166001600160a01b03948516171790945584513481529384015284169282019290925286907f39b24cbe33ddb28dc22abcbaf14bf7f5544cc9c886c49dbb2f0d30e9dd1448949060600160405180910390a35050505050565b6001600160a01b0382166110f75760405162461bcd60e51b815260206004820152601660248201527f526563697069656e742061646472657373207a65726f0000000000000000000060448201526064016106d2565b806000036111475760405162461bcd60e51b815260206004820152600b60248201527f416d6f756e74207a65726f00000000000000000000000000000000000000000060448201526064016106d2565b336001600160a01b037f00000000000000000000000000000000000000000000000000000000000000001614806112275750604051632474521560e21b81527f000000000000000000000000000000000000000000000000000000000000000060048201523360248201527f00000000000000000000000000000000000000000000000000000000000000006001600160a01b0316906391d1485490604401602060405180830381865afa158015611203573d6000803e3d6000fd5b505050506040513d601f19601f820116820180604052508101906112279190613393565b6112735760405162461bcd60e51b815260206004820152601660248201527f53656e6465722063616e6e6f742077697468647261770000000000000000000060448201526064016106d2565b6000826001600160a01b03168260405160006040518083038185875af1925050503d80600081146112c0576040519150601f19603f3d011682016040523d82523d6000602084013e6112c5565b606091505b50509050806113165760405162461bcd60e51b815260206004820152601360248201527f5769746864726177616c2072657665727465640000000000000000000000000060448201526064016106d2565b604080516001600160a01b038516815260208101849052338183015290517fff79f55e9fae054ff094d9e06f631119716d818f9f8ea9b5b2adf5679f6c12e09181900360600190a1505050565b6000808033156113b55760405162461bcd60e51b815260206004820152601760248201527f53656e6465722061646472657373206e6f74207a65726f00000000000000000060448201526064016106d2565b6113c38660001987876115f1565b91989097509095509350505050565b80516000908190600181116114295760405162461bcd60e51b815260206004820152601f60248201527f537065636966696564206c657373207468616e2074776f20426561636f6e730060448201526064016106d2565b60008167ffffffffffffffff81111561144457611444612e5d565b60405190808252806020026020018201604052801561146d578160200160208202803683370190505b50905060008267ffffffffffffffff81111561148b5761148b612e5d565b6040519080825280602002602001820160405280156114b4578160200160208202803683370190505b50905060005b83811015611555576000600160008984815181106114da576114da6132c9565b602090810291909101810151825281019190915260400160002080548551919250601b0b90859084908110611511576115116132c9565b602090810291909101015280548351600160e01b90910463ffffffff1690849084908110611541576115416132c9565b6020908102919091010152506001016114ba565b5061155f82611f81565b945061156a81611f81565b9350505050915091565b60008160405160200161158791906133b5565b604051602081830303815290604052805190602001209050919050565b60606115e8838360006040518060400160405280601e81526020017f416464726573733a206c6f772d6c6576656c2063616c6c206661696c656400008152506120d3565b90505b92915050565b6000808083806116435760405162461bcd60e51b815260206004820152601160248201527f5369676e6564206461746120656d70747900000000000000000000000000000060448201526064016106d2565b806001036118c75760008060008060008a8a6000818110611666576116666132c9565b905060200281019061167891906132df565b8101906116859190613469565b945094509450945094506116db85856040516bffffffffffffffffffffffff19606084901b1660208201526034810182905260009060540160405160208183030381529060405280519060200120905092915050565b985060008d8a6040516020016116fb929190918252602082015260400190565b604051602081830303815290604052805190602001209050856001600160a01b031661176183610e848860405160200161173791815260200190565b604051602081830303815290604052805190602001208888604051602001610e69939291906134f3565b6001600160a01b0316146117ac5760405162461bcd60e51b81526020600482015260126024820152710a6d2cedcc2e8eae4ca40dad2e6dac2e8c6d60731b60448201526064016106d2565b8c8411156117fc5760405162461bcd60e51b815260206004820152601960248201527f54696d657374616d702065786365656473206375742d6f66660000000000000060448201526064016106d2565b600081815260016020526040902054600160e01b900463ffffffff1684116118665760405162461bcd60e51b815260206004820152601960248201527f446f6573206e6f74207570646174652074696d657374616d700000000000000060448201526064016106d2565b61186f836121c7565b604080518082018252601b83900b815263ffffffff80881660208084019182526000968752600190529290942090519151909316600160e01b026001600160e01b03909116179091559750919550611f179350505050565b60008167ffffffffffffffff8111156118e2576118e2612e5d565b60405190808252806020026020018201604052801561190b578160200160208202803683370190505b50905060008267ffffffffffffffff81111561192957611929612e5d565b604051908082528060200260200182016040528015611952578160200160208202803683370190505b50905060005b83811015611dfc5760008060008060008d8d8781811061197a5761197a6132c9565b905060200281019061198c91906132df565b8101906119999190613469565b945094509450945094506119ef85856040516bffffffffffffffffffffffff19606084901b1660208201526034810182905260009060540160405160208183030381529060405280519060200120905092915050565b888781518110611a0157611a016132c9565b6020026020010181815250508f888781518110611a2057611a206132c9565b6020026020010151604051602001611a42929190918252602082015260400190565b60405160208183030381529060405280519060200120878781518110611a6a57611a6a6132c9565b6020908102919091010152805115611c6d57846001600160a01b0316611aca82610e8487604051602001611aa091815260200190565b604051602081830303815290604052805190602001208787604051602001610e69939291906134f3565b6001600160a01b031614611b155760405162461bcd60e51b81526020600482015260126024820152710a6d2cedcc2e8eae4ca40dad2e6dac2e8c6d60731b60448201526064016106d2565b8e831115611b655760405162461bcd60e51b815260206004820152601960248201527f54696d657374616d702065786365656473206375742d6f66660000000000000060448201526064016106d2565b60016000888881518110611b7b57611b7b6132c9565b602090810291909101810151825281019190915260400160002054600160e01b900463ffffffff168311611bf15760405162461bcd60e51b815260206004820152601960248201527f446f6573206e6f74207570646174652074696d657374616d700000000000000060448201526064016106d2565b6040518060400160405280611c05846121c7565b601b0b81526020018463ffffffff1681525060016000898981518110611c2d57611c2d6132c9565b6020908102919091018101518252818101929092526040016000208251929091015163ffffffff16600160e01b026001600160e01b039092169190911790555b6000807f00000000000000000000000000000000000000000000000000000000000000006001600160a01b03166367a7cfb78b8a81518110611cb157611cb16132c9565b60200260200101516040518263ffffffff1660e01b8152600401611cd791815260200190565b6040805180830381865afa158015611cf3573d6000803e3d6000fd5b505050506040513d601f19601f82011682018060405250810190611d179190613520565b91509150600160008a8a81518110611d3157611d316132c9565b60200260200101518152602001908152602001600020600001601c9054906101000a900463ffffffff1663ffffffff168163ffffffff161115611de257604051806040016040528083601b0b81526020018263ffffffff16815250600160008b8b81518110611da257611da26132c9565b6020908102919091018101518252818101929092526040016000208251929091015163ffffffff16600160e01b026001600160e01b039092169190911790555b505050505050508080611df490613560565b915050611958565b50611e0682611574565b9550611e11816113d2565b909550935060008a611e2284611574565b60408051602081019390935282015260600160408051601f19818403018152918152815160209283012060008181526001909352912080549192509063ffffffff808816600160e01b9092041603611ecb578054601b88810b91900b03611ecb5760405162461bcd60e51b815260206004820152601a60248201527f446f6573206e6f742075706461746520426561636f6e2073657400000000000060448201526064016106d2565b50604080518082018252601b88900b815263ffffffff80881660208084019182526000958652600190529290932090519151909216600160e01b026001600160e01b0390911617905550505b509450945094915050565b6040517f19457468657265756d205369676e6564204d6573736167653a0a3332000000006020820152603c8101829052600090605c01611587565b6000806000611f6c85856122ca565b91509150611f798161230f565b509392505050565b80516000906009811161205357611f9783612477565b611fa260028261358f565b600103611fd55782611fb56002836135a3565b81518110611fc557611fc56132c9565b6020026020010151915050919050565b80600003611fe557611fe56135b7565b6109ee836001600284040381518110612000576120006132c9565b6020026020010151846002848161201957612019613579565b048151811061202a5761202a6132c9565b6020026020010151600182811d82821d01838316919091160160ff81901c838318160192915050565b61205e60028261358f565b60010361207a5782611fb5816120756002856135a3565b612989565b60008061208d85600160028604036129b6565b80925081935050506120c48583815181106120aa576120aa6132c9565b602002602001015186838151811061202a5761202a6132c9565b95945050505050565b50919050565b60608247101561214b5760405162461bcd60e51b815260206004820152602660248201527f416464726573733a20696e73756666696369656e742062616c616e636520666f60448201527f722063616c6c000000000000000000000000000000000000000000000000000060648201526084016106d2565b600080866001600160a01b0316858760405161216791906135cd565b60006040518083038185875af1925050503d80600081146121a4576040519150601f19603f3d011682016040523d82523d6000602084013e6121a9565b606091505b50915091506121ba878383876129eb565b925050505b949350505050565b6000815160201461221a5760405162461bcd60e51b815260206004820152601760248201527f44617461206c656e677468206e6f7420636f727265637400000000000000000060448201526064016106d2565b60008280602001905181019061223091906135e9565b90507fffffffff80000000000000000000000000000000000000000000000000000000811280159061227e57507b7fffffffffffffffffffffffffffffffffffffffffffffffffffffff8113155b6115eb5760405162461bcd60e51b815260206004820152601760248201527f56616c7565207479706563617374696e67206572726f7200000000000000000060448201526064016106d2565b60008082516041036123005760208301516040840151606085015160001a6122f487828585612a64565b94509450505050612308565b506000905060025b9250929050565b600081600481111561232357612323613602565b0361232b5750565b600181600481111561233f5761233f613602565b0361238c5760405162461bcd60e51b815260206004820152601860248201527f45434453413a20696e76616c6964207369676e6174757265000000000000000060448201526064016106d2565b60028160048111156123a0576123a0613602565b036123ed5760405162461bcd60e51b815260206004820152601f60248201527f45434453413a20696e76616c6964207369676e6174757265206c656e6774680060448201526064016106d2565b600381600481111561240157612401613602565b036124745760405162461bcd60e51b815260206004820152602260248201527f45434453413a20696e76616c6964207369676e6174757265202773272076616c60448201527f756500000000000000000000000000000000000000000000000000000000000060648201526084016106d2565b50565b805160098111156124ca5760405162461bcd60e51b815260206004820152601660248201527f417272617920746f6f206c6f6e6720746f20736f72740000000000000000000060448201526064016106d2565b60068110156125d5576004811015612524578060030361250f576124f18260006001612b28565b6124fe8260016002612b28565b61250b8260006001612b28565b5050565b8060020361250b5761250b8260006001612b28565b806005036125a1576125398260016002612b28565b6125468260036004612b28565b6125538260016003612b28565b6125608260006002612b28565b61256d8260026004612b28565b61257a8260006003612b28565b6125878260006001612b28565b6125948260026003612b28565b61250b8260016002612b28565b6125ae8260006001612b28565b6125bb8260026003612b28565b6125c88260016003612b28565b6125948260006002612b28565b600881101561275257806007036126b6576125f38260016002612b28565b6126008260036004612b28565b61260d8260056006612b28565b61261a8260006002612b28565b6126278260046006612b28565b6126348260036005612b28565b6126418260026006612b28565b61264e8260016005612b28565b61265b8260006004612b28565b6126688260026005612b28565b6126758260006003612b28565b6126828260026004612b28565b61268f8260016003612b28565b61269c8260006001612b28565b6126a98260026003612b28565b61250b8260046005612b28565b6126c38260006001612b28565b6126d08260026003612b28565b6126dd8260046005612b28565b6126ea8260016003612b28565b6126f78260036005612b28565b6127048260016003612b28565b6127118260026004612b28565b61271e8260006002612b28565b61272b8260026004612b28565b6127388260036004612b28565b6127458260016002612b28565b61250b8260026003612b28565b80600903612885576127678260016008612b28565b6127748260026007612b28565b6127818260036006612b28565b61278e8260046005612b28565b61279b8260016004612b28565b6127a88260056008612b28565b6127b58260006002612b28565b6127c28260066007612b28565b6127cf8260026006612b28565b6127dc8260076008612b28565b6127e98260006003612b28565b6127f68260046005612b28565b6128038260006001612b28565b6128108260036005612b28565b61281d8260066007612b28565b61282a8260026004612b28565b6128378260016003612b28565b6128448260056007612b28565b6128518260046006612b28565b61285e8260016002612b28565b61286b8260036004612b28565b6128788260056006612b28565b61269c8260076008612b28565b6128928260006007612b28565b61289f8260016006612b28565b6128ac8260026005612b28565b6128b98260036004612b28565b6128c68260006003612b28565b6128d38260046007612b28565b6128e08260016002612b28565b6128ed8260056006612b28565b6128fa8260006001612b28565b6129078260026003612b28565b6129148260046005612b28565b6129218260066007612b28565b61292e8260036005612b28565b61293b8260026004612b28565b6129488260016002612b28565b6129558260036004612b28565b6129628260056006612b28565b61296f8260026003612b28565b61297c8260046005612b28565b61250b8260036004612b28565b81516000908061299b5761299b6135b7565b6129ad84600060018403866000612bd6565b50949350505050565b81516000908190600181116129cd576129cd6135b7565b6129df85600060018403876001612bd6565b90969095509350505050565b60608315612a5a578251600003612a53576001600160a01b0385163b612a535760405162461bcd60e51b815260206004820152601d60248201527f416464726573733a2063616c6c20746f206e6f6e2d636f6e747261637400000060448201526064016106d2565b50816121bf565b6121bf8383612cac565b6000807f7fffffffffffffffffffffffffffffff5d576e7357a4501ddfe92f46681b20a0831115612a9b5750600090506003612b1f565b6040805160008082526020820180845289905260ff881692820192909252606081018690526080810185905260019060a0016020604051602081039080840390855afa158015612aef573d6000803e3d6000fd5b5050604051601f1901519150506001600160a01b038116612b1857600060019250925050612b1f565b9150600090505b94509492505050565b828181518110612b3a57612b3a6132c9565b6020026020010151838381518110612b5457612b546132c9565b60200260200101511315612bd157828181518110612b7457612b746132c9565b6020026020010151838381518110612b8e57612b8e6132c9565b6020026020010151848481518110612ba857612ba86132c9565b60200260200101858481518110612bc157612bc16132c9565b6020908102919091010191909152525b505050565b600080848603612beb57508290506000612ca2565b6000612bf8888888612cd6565b905080851015612c1b57612c13888860018403886000612bd6565b509250612c38565b80851115612c3457612c13888260010188886000612bd6565b8092505b8315612ca057875160018401925060028401905b80821015612c9d57898481518110612c6657612c666132c9565b60200260200101518a8381518110612c8057612c806132c9565b60200260200101511215612c92578193505b600190910190612c4c565b50505b505b9550959350505050565b815115612cbc5781518083602001fd5b8060405162461bcd60e51b81526004016106d291906130c6565b6000818303612ce65750816109ee565b6000848481518110612cfa57612cfa6132c9565b6020026020010151905060008490508360010192505b855160019091019081108015612d3e575081868281518110612d3457612d346132c9565b6020026020010151125b612d10575b82806001900393505081868481518110612d5f57612d5f6132c9565b602002602001015113612d4357828110612dea57858381518110612d8557612d856132c9565b6020026020010151868681518110612d9f57612d9f6132c9565b6020026020010151878781518110612db957612db96132c9565b60200260200101888681518110612dd257612dd26132c9565b602002602001018281525082815250505050506109ee565b858381518110612dfc57612dfc6132c9565b6020026020010151868281518110612e1657612e166132c9565b6020026020010151878381518110612e3057612e306132c9565b60200260200101888681518110612e4957612e496132c9565b602090810291909101019190915252612d10565b634e487b7160e01b600052604160045260246000fd5b604051601f8201601f1916810167ffffffffffffffff81118282101715612e9c57612e9c612e5d565b604052919050565b60006020808385031215612eb757600080fd5b823567ffffffffffffffff80821115612ecf57600080fd5b818501915085601f830112612ee357600080fd5b813581811115612ef557612ef5612e5d565b8060051b9150612f06848301612e73565b8181529183018401918481019088841115612f2057600080fd5b938501935b83851015612f3e57843582529385019390850190612f25565b98975050505050505050565b60008083601f840112612f5c57600080fd5b50813567ffffffffffffffff811115612f7457600080fd5b6020830191508360208260051b850101111561230857600080fd5b60008060208385031215612fa257600080fd5b823567ffffffffffffffff811115612fb957600080fd5b6129df85828601612f4a565b60005b83811015612fe0578181015183820152602001612fc8565b50506000910152565b60008151808452613001816020860160208601612fc5565b601f01601f19169290920160200192915050565b600082825180855260208086019550808260051b84010181860160005b8481101561306057601f1986840301895261304e838351612fe9565b98840198925090830190600101613032565b5090979650505050505050565b604080825283519082018190526000906020906060840190828701845b828110156130a857815115158452928401929084019060010161308a565b505050838103828501526130bc8186613015565b9695505050505050565b6020815260006115e86020830184612fe9565b6001600160a01b038116811461247457600080fd5b60006020828403121561310057600080fd5b81356109ee816130d9565b60008083601f84011261311d57600080fd5b50813567ffffffffffffffff81111561313557600080fd5b60208301915083602082850101111561230857600080fd5b60008060006040848603121561316257600080fd5b833561316d816130d9565b9250602084013567ffffffffffffffff81111561318957600080fd5b6131958682870161310b565b9497909650939450505050565b600080604083850312156131b557600080fd5b50508035926020909101359150565b6000602082840312156131d657600080fd5b5035919050565b6000806000604084860312156131f257600080fd5b83359250602084013567ffffffffffffffff81111561321057600080fd5b61319586828701612f4a565b6020815260006115e86020830184613015565b63ffffffff8116811461247457600080fd5b6000806000806060858703121561325757600080fd5b8435935060208501356132698161322f565b9250604085013567ffffffffffffffff81111561328557600080fd5b6132918782880161310b565b95989497509550505050565b600080604083850312156132b057600080fd5b82356132bb816130d9565b946020939093013593505050565b634e487b7160e01b600052603260045260246000fd5b6000808335601e198436030181126132f657600080fd5b83018035915067ffffffffffffffff82111561331157600080fd5b60200191503681900382131561230857600080fd5b8183823760009101908152919050565b600181811c9082168061334a57607f821691505b6020821081036120cd57634e487b7160e01b600052602260045260246000fd5b634e487b7160e01b600052601160045260246000fd5b808201808211156115eb576115eb61336a565b6000602082840312156133a557600080fd5b815180151581146109ee57600080fd5b6020808252825182820181905260009190848201906040850190845b818110156133ed578351835292840192918401916001016133d1565b50909695505050505050565b600082601f83011261340a57600080fd5b813567ffffffffffffffff81111561342457613424612e5d565b613437601f8201601f1916602001612e73565b81815284602083860101111561344c57600080fd5b816020850160208301376000918101602001919091529392505050565b600080600080600060a0868803121561348157600080fd5b853561348c816130d9565b94506020860135935060408601359250606086013567ffffffffffffffff808211156134b757600080fd5b6134c389838a016133f9565b935060808801359150808211156134d957600080fd5b506134e6888289016133f9565b9150509295509295909350565b83815282602082015260008251613511816040850160208701612fc5565b91909101604001949350505050565b6000806040838503121561353357600080fd5b825180601b0b811461354457600080fd5b60208401519092506135558161322f565b809150509250929050565b6000600182016135725761357261336a565b5060010190565b634e487b7160e01b600052601260045260246000fd5b60008261359e5761359e613579565b500690565b6000826135b2576135b2613579565b500490565b634e487b7160e01b600052600160045260246000fd5b600082516135df818460208701612fc5565b9190910192915050565b6000602082840312156135fb57600080fd5b5051919050565b634e487b7160e01b600052602160045260246000fdfea2646970667358221220f6c2716976bfc2991386e282460b045d2925c05d1abc5c12230a67229925021864736f6c63430008110033",
  "devdoc": {
    "kind": "dev",
    "methods": {
      "constructor": {
        "params": {
          "accessControlRegistry_": "AccessControlRegistry contract address",
          "adminRoleDescription_": "Admin role description",
          "api3ServerV1_": "Api3ServerV1 address",
          "manager_": "Manager address"
        }
      },
      "containsBytecode(address)": {
        "details": "An account not containing any bytecode does not indicate that it is an EOA or it will not contain any bytecode in the future. Contract construction and `SELFDESTRUCT` updates the bytecode at the end of the transaction.",
        "returns": {
          "_0": "If the account contains bytecode"
        }
      },
      "getBalance(address)": {
        "params": {
          "account": "Account address"
        },
        "returns": {
          "_0": "Account balance"
        }
      },
      "getBlockBasefee()": {
        "returns": {
          "_0": "Current block basefee"
        }
      },
      "getBlockNumber()": {
        "returns": {
          "_0": "Current block number"
        }
      },
      "getBlockTimestamp()": {
        "returns": {
          "_0": "Current block timestamp"
        }
      },
      "getChainId()": {
        "returns": {
          "_0": "Chain ID"
        }
      },
      "multicall(bytes[])": {
        "params": {
          "data": "Array of calldata of batched calls"
        },
        "returns": {
          "returndata": "Array of returndata of batched calls"
        }
      },
      "oevDataFeed(uint256,bytes32)": {
        "params": {
          "dappId": "dApp ID",
          "dataFeedId": "Data feed ID"
        },
        "returns": {
          "timestamp": "Data feed timestamp",
          "value": "Data feed value"
        }
      },
      "payOevBid(uint256,uint32,bytes)": {
        "params": {
          "dappId": "dApp ID",
          "signature": "Signature provided by an auctioneer",
          "signedDataTimestampCutoff": "Signed data timestamp cut-off"
        }
      },
      "simulateDappOevDataFeedUpdate(uint256,bytes[])": {
        "details": "The intended flow is for a searcher to do a static multicall to this function and `simulateExternalCall()` to check if the current signed data lets them extract OEV. If so, the searcher stores this data and places a bid on OevAuctionHouse. If they win the auction, they pay the bid and use the stored signed data with `updateDappOevDataFeed()` to extract OEV.",
        "params": {
          "dappId": "dApp ID",
          "signedData": "Signed data (see `_updateDappOevDataFeed()` for details)"
        },
        "returns": {
          "baseDataFeedId": "Base data feed ID",
          "updatedTimestamp": "Updated timestamp",
          "updatedValue": "Updated value"
        }
      },
      "simulateExternalCall(address,bytes)": {
        "details": "The most basic usage of this is in a static multicall that calls `simulateDappOevDataFeedUpdate()` multiple times to update the relevant feeds, followed by an external call to the liquidator contract of the searcher, which is built to return the revenue from the liquidation. The returned value would then be used to determine the bid amount.",
        "params": {
          "data": "Calldata of the external call",
          "target": "Target address of the external call"
        },
        "returns": {
          "_0": "Returndata of the external call"
        }
      },
      "tryMulticall(bytes[])": {
        "params": {
          "data": "Array of calldata of batched calls"
        },
        "returns": {
          "returndata": "Array of returndata of batched calls",
          "successes": "Array of success conditions of batched calls"
        }
      },
      "updateBeaconSetWithBeacons(bytes32[])": {
        "details": "As an oddity, this function still works if some of the IDs in `beaconIds` belong to Beacon sets rather than Beacons. This can be used to implement hierarchical Beacon sets.",
        "params": {
          "beaconIds": "Beacon IDs"
        },
        "returns": {
          "beaconSetId": "Beacon set ID"
        }
      },
      "updateDappOevDataFeed(uint256,bytes[])": {
        "params": {
          "dappId": "dApp ID",
          "signedData": "Signed data (see `_updateDappOevDataFeed()` for details)"
        },
        "returns": {
          "baseDataFeedId": "Base data feed ID",
          "updatedTimestamp": "Updated timestamp",
          "updatedValue": "Updated value"
        }
      },
      "withdraw(address,uint256)": {
        "params": {
          "amount": "Amount",
          "recipient": "Recipient address"
        }
      }
    },
    "title": "Api3ServerV1 extension for OEV support",
    "version": 1
  },
  "userdoc": {
    "kind": "user",
    "methods": {
      "AUCTIONEER_ROLE_DESCRIPTION()": {
        "notice": "Auctioneer role description"
      },
      "WITHDRAWER_ROLE_DESCRIPTION()": {
        "notice": "Withdrawer role description"
      },
      "accessControlRegistry()": {
        "notice": "AccessControlRegistry contract address"
      },
      "adminRole()": {
        "notice": "Admin role"
      },
      "adminRoleDescription()": {
        "notice": "Admin role description"
      },
      "api3ServerV1()": {
        "notice": "Api3ServerV1 contract address"
      },
      "auctioneerRole()": {
        "notice": "Auctioneer role"
      },
      "containsBytecode(address)": {
        "notice": "Returns if the account contains bytecode"
      },
      "dappIdToLastPaidBid(uint256)": {
        "notice": "Returns the parameters of the last paid bid for the dApp with ID"
      },
      "getBalance(address)": {
        "notice": "Returns the account balance"
      },
      "getBlockBasefee()": {
        "notice": "Returns the current block basefee"
      },
      "getBlockNumber()": {
        "notice": "Returns the current block number"
      },
      "getBlockTimestamp()": {
        "notice": "Returns the current block timestamp"
      },
      "getChainId()": {
        "notice": "Returns the chain ID"
      },
      "manager()": {
        "notice": "Address of the manager that manages the related AccessControlRegistry roles"
      },
      "multicall(bytes[])": {
        "notice": "Batches calls to the inheriting contract and reverts as soon as one of the batched calls reverts"
      },
      "oevDataFeed(uint256,bytes32)": {
        "notice": "Value of the OEV data feed specific to the dApp, intended for informational purposes. The dApps are strongly recommended to use the standardized proxies to read data feeds."
      },
      "payOevBid(uint256,uint32,bytes)": {
        "notice": "An OEV auction bid specifies a dApp ID, a signed data timestamp cut-off, a bid amount and an updater account. To award the winning bid, an auctioneer signs a message that includes the hash of these parameters and publishes it. Then, the updater account calls this function to pay the bid amount and claim the privilege to execute updates for the dApp with ID using the signed data whose timestamps are limited by the cut-off."
      },
      "simulateDappOevDataFeedUpdate(uint256,bytes[])": {
        "notice": "Called by the zero address to simulate an OEV data feed update"
      },
      "simulateExternalCall(address,bytes)": {
        "notice": "Called by the zero address to simulate an external call"
      },
      "tryMulticall(bytes[])": {
        "notice": "Batches calls to the inheriting contract but does not revert if any of the batched calls reverts"
      },
      "updateBeaconSetWithBeacons(bytes32[])": {
        "notice": "Updates the Beacon set using the current values of its Beacons"
      },
      "updateDappOevDataFeed(uint256,bytes[])": {
        "notice": "Called by the current updater of the dApp with ID to update the OEV data feed specific to the dApp"
      },
      "withdraw(address,uint256)": {
        "notice": "Called by the contract manager or a withdrawer to withdraw the accumulated OEV auction proceeds"
      },
      "withdrawerRole()": {
        "notice": "Withdrawer role"
      }
    },
    "notice": "Api3ServerV1 contract supports base data feeds and OEV functionality. This contract implements the updated OEV design, and thus supersedes the OEV-related portion of Api3ServerV1. As before, the users are intended to read API3 data feeds through a standardized proxy, which abstracts this change away.",
    "version": 1
  },
  "storageLayout": {
    "storage": [
      {
        "astId": 20,
        "contract": "contracts/api3-server-v1/Api3ServerV1OevExtension.sol:Api3ServerV1OevExtension",
        "label": "adminRoleDescription",
        "offset": 0,
        "slot": "0",
        "type": "t_string_storage"
      },
      {
        "astId": 1123,
        "contract": "contracts/api3-server-v1/Api3ServerV1OevExtension.sol:Api3ServerV1OevExtension",
        "label": "_dataFeeds",
        "offset": 0,
        "slot": "1",
        "type": "t_mapping(t_bytes32,t_struct(DataFeed)1117_storage)"
      },
      {
        "astId": 332,
        "contract": "contracts/api3-server-v1/Api3ServerV1OevExtension.sol:Api3ServerV1OevExtension",
        "label": "dappIdToLastPaidBid",
        "offset": 0,
        "slot": "2",
        "type": "t_mapping(t_uint256,t_struct(LastPaidBid)303_storage)"
      }
    ],
    "types": {
      "t_address": {
        "encoding": "inplace",
        "label": "address",
        "numberOfBytes": "20"
      },
      "t_bytes32": {
        "encoding": "inplace",
        "label": "bytes32",
        "numberOfBytes": "32"
      },
      "t_int224": {
        "encoding": "inplace",
        "label": "int224",
        "numberOfBytes": "28"
      },
      "t_mapping(t_bytes32,t_struct(DataFeed)1117_storage)": {
        "encoding": "mapping",
        "key": "t_bytes32",
        "label": "mapping(bytes32 => struct DataFeedServer.DataFeed)",
        "numberOfBytes": "32",
        "value": "t_struct(DataFeed)1117_storage"
      },
      "t_mapping(t_uint256,t_struct(LastPaidBid)303_storage)": {
        "encoding": "mapping",
        "key": "t_uint256",
        "label": "mapping(uint256 => struct Api3ServerV1OevExtension.LastPaidBid)",
        "numberOfBytes": "32",
        "value": "t_struct(LastPaidBid)303_storage"
      },
      "t_string_storage": {
        "encoding": "bytes",
        "label": "string",
        "numberOfBytes": "32"
      },
      "t_struct(DataFeed)1117_storage": {
        "encoding": "inplace",
        "label": "struct DataFeedServer.DataFeed",
        "members": [
          {
            "astId": 1114,
            "contract": "contracts/api3-server-v1/Api3ServerV1OevExtension.sol:Api3ServerV1OevExtension",
            "label": "value",
            "offset": 0,
            "slot": "0",
            "type": "t_int224"
          },
          {
            "astId": 1116,
            "contract": "contracts/api3-server-v1/Api3ServerV1OevExtension.sol:Api3ServerV1OevExtension",
            "label": "timestamp",
            "offset": 28,
            "slot": "0",
            "type": "t_uint32"
          }
        ],
        "numberOfBytes": "32"
      },
      "t_struct(LastPaidBid)303_storage": {
        "encoding": "inplace",
        "label": "struct Api3ServerV1OevExtension.LastPaidBid",
        "members": [
          {
            "astId": 300,
            "contract": "contracts/api3-server-v1/Api3ServerV1OevExtension.sol:Api3ServerV1OevExtension",
            "label": "updater",
            "offset": 0,
            "slot": "0",
            "type": "t_address"
          },
          {
            "astId": 302,
            "contract": "contracts/api3-server-v1/Api3ServerV1OevExtension.sol:Api3ServerV1OevExtension",
            "label": "signedDataTimestampCutoff",
            "offset": 20,
            "slot": "0",
            "type": "t_uint32"
          }
        ],
        "numberOfBytes": "32"
      },
      "t_uint256": {
        "encoding": "inplace",
        "label": "uint256",
        "numberOfBytes": "32"
      },
      "t_uint32": {
        "encoding": "inplace",
        "label": "uint32",
        "numberOfBytes": "4"
      }
    }
  }
}